{
  "_format": "hh-sol-artifact-1",
  "contractName": "TicTacToe",
  "sourceName": "contracts/TicTacToe-Remix.sol",
  "abi": [
    {
      "inputs": [],
      "stateMutability": "nonpayable",
      "type": "constructor"
    },
    {
      "anonymous": false,
      "inputs": [
        {
          "indexed": true,
          "internalType": "uint256",
          "name": "gameId",
          "type": "uint256"
        },
        {
          "indexed": true,
          "internalType": "address",
          "name": "player1",
          "type": "address"
        },
        {
          "indexed": true,
          "internalType": "address",
          "name": "player2",
          "type": "address"
        }
      ],
      "name": "GameCreated",
      "type": "event"
    },
    {
      "anonymous": false,
      "inputs": [
        {
          "indexed": true,
          "internalType": "uint256",
          "name": "gameId",
          "type": "uint256"
        },
        {
          "indexed": true,
          "internalType": "address",
          "name": "winner",
          "type": "address"
        }
      ],
      "name": "GameFinished",
      "type": "event"
    },
    {
      "anonymous": false,
      "inputs": [
        {
          "indexed": true,
          "internalType": "uint256",
          "name": "gameId",
          "type": "uint256"
        },
        {
          "indexed": true,
          "internalType": "address",
          "name": "player",
          "type": "address"
        },
        {
          "indexed": false,
          "internalType": "uint8",
          "name": "position",
          "type": "uint8"
        }
      ],
      "name": "MoveMade",
      "type": "event"
    },
    {
      "anonymous": false,
      "inputs": [
        {
          "indexed": true,
          "internalType": "address",
          "name": "player",
          "type": "address"
        },
        {
          "indexed": false,
          "internalType": "string",
          "name": "username",
          "type": "string"
        }
      ],
      "name": "PlayerRegistered",
      "type": "event"
    },
    {
      "inputs": [
        {
          "internalType": "address",
          "name": "_opponent",
          "type": "address"
        }
      ],
      "name": "createGame",
      "outputs": [
        {
          "internalType": "uint256",
          "name": "",
          "type": "uint256"
        }
      ],
      "stateMutability": "nonpayable",
      "type": "function"
    },
    {
      "inputs": [],
      "name": "gameCounter",
      "outputs": [
        {
          "internalType": "uint256",
          "name": "",
          "type": "uint256"
        }
      ],
      "stateMutability": "view",
      "type": "function"
    },
    {
      "inputs": [
        {
          "internalType": "uint256",
          "name": "",
          "type": "uint256"
        }
      ],
      "name": "games",
      "outputs": [
        {
          "internalType": "address",
          "name": "player1",
          "type": "address"
        },
        {
          "internalType": "address",
          "name": "player2",
          "type": "address"
        },
        {
          "internalType": "address",
          "name": "currentPlayer",
          "type": "address"
        },
        {
          "internalType": "address",
          "name": "winner",
          "type": "address"
        },
        {
          "internalType": "bool",
          "name": "isFinished",
          "type": "bool"
        },
        {
          "internalType": "uint256",
          "name": "gameId",
          "type": "uint256"
        }
      ],
      "stateMutability": "view",
      "type": "function"
    },
    {
      "inputs": [
        {
          "internalType": "uint256",
          "name": "_gameId",
          "type": "uint256"
        }
      ],
      "name": "getGame",
      "outputs": [
        {
          "components": [
            {
              "internalType": "address",
              "name": "player1",
              "type": "address"
            },
            {
              "internalType": "address",
              "name": "player2",
              "type": "address"
            },
            {
              "internalType": "address",
              "name": "currentPlayer",
              "type": "address"
            },
            {
              "internalType": "uint8[9]",
              "name": "board",
              "type": "uint8[9]"
            },
            {
              "internalType": "address",
              "name": "winner",
              "type": "address"
            },
            {
              "internalType": "bool",
              "name": "isFinished",
              "type": "bool"
            },
            {
              "internalType": "uint256",
              "name": "gameId",
              "type": "uint256"
            }
          ],
          "internalType": "struct TicTacToe.Game",
          "name": "",
          "type": "tuple"
        }
      ],
      "stateMutability": "view",
      "type": "function"
    },
    {
      "inputs": [],
      "name": "getLeaderboard",
      "outputs": [
        {
          "components": [
            {
              "internalType": "address",
              "name": "wallet",
              "type": "address"
            },
            {
              "internalType": "string",
              "name": "username",
              "type": "string"
            },
            {
              "internalType": "uint256",
              "name": "gamesPlayed",
              "type": "uint256"
            },
            {
              "internalType": "uint256",
              "name": "wins",
              "type": "uint256"
            },
            {
              "internalType": "uint256",
              "name": "losses",
              "type": "uint256"
            },
            {
              "internalType": "bool",
              "name": "isRegistered",
              "type": "bool"
            }
          ],
          "internalType": "struct TicTacToe.Player[]",
          "name": "",
          "type": "tuple[]"
        }
      ],
      "stateMutability": "view",
      "type": "function"
    },
    {
      "inputs": [
        {
          "internalType": "uint256",
          "name": "index",
          "type": "uint256"
        }
      ],
      "name": "getPlayerByIndex",
      "outputs": [
        {
          "components": [
            {
              "internalType": "address",
              "name": "wallet",
              "type": "address"
            },
            {
              "internalType": "string",
              "name": "username",
              "type": "string"
            },
            {
              "internalType": "uint256",
              "name": "gamesPlayed",
              "type": "uint256"
            },
            {
              "internalType": "uint256",
              "name": "wins",
              "type": "uint256"
            },
            {
              "internalType": "uint256",
              "name": "losses",
              "type": "uint256"
            },
            {
              "internalType": "bool",
              "name": "isRegistered",
              "type": "bool"
            }
          ],
          "internalType": "struct TicTacToe.Player",
          "name": "",
          "type": "tuple"
        }
      ],
      "stateMutability": "view",
      "type": "function"
    },
    {
      "inputs": [],
      "name": "getPlayerCount",
      "outputs": [
        {
          "internalType": "uint256",
          "name": "",
          "type": "uint256"
        }
      ],
      "stateMutability": "view",
      "type": "function"
    },
    {
      "inputs": [
        {
          "internalType": "uint256",
          "name": "_gameId",
          "type": "uint256"
        },
        {
          "internalType": "uint8",
          "name": "_position",
          "type": "uint8"
        }
      ],
      "name": "makeMove",
      "outputs": [],
      "stateMutability": "nonpayable",
      "type": "function"
    },
    {
      "inputs": [
        {
          "internalType": "address",
          "name": "",
          "type": "address"
        }
      ],
      "name": "players",
      "outputs": [
        {
          "internalType": "address",
          "name": "wallet",
          "type": "address"
        },
        {
          "internalType": "string",
          "name": "username",
          "type": "string"
        },
        {
          "internalType": "uint256",
          "name": "gamesPlayed",
          "type": "uint256"
        },
        {
          "internalType": "uint256",
          "name": "wins",
          "type": "uint256"
        },
        {
          "internalType": "uint256",
          "name": "losses",
          "type": "uint256"
        },
        {
          "internalType": "bool",
          "name": "isRegistered",
          "type": "bool"
        }
      ],
      "stateMutability": "view",
      "type": "function"
    },
    {
      "inputs": [
        {
          "internalType": "string",
          "name": "_username",
          "type": "string"
        }
      ],
      "name": "registerPlayer",
      "outputs": [],
      "stateMutability": "nonpayable",
      "type": "function"
    },
    {
      "inputs": [
        {
          "internalType": "uint256",
          "name": "",
          "type": "uint256"
        }
      ],
      "name": "registeredPlayers",
      "outputs": [
        {
          "internalType": "address",
          "name": "",
          "type": "address"
        }
      ],
      "stateMutability": "view",
      "type": "function"
    },
    {
      "inputs": [
        {
          "internalType": "string",
          "name": "",
          "type": "string"
        }
      ],
      "name": "usernameToAddress",
      "outputs": [
        {
          "internalType": "address",
          "name": "",
          "type": "address"
        }
      ],
      "stateMutability": "view",
      "type": "function"
    }
  ],
  "bytecode": "0x608060405234801561001057600080fd5b506000600355611c1e806100256000396000f3fe608060405234801561001057600080fd5b50600436106100b45760003560e01c8063a2f77bcc11610071578063a2f77bcc146101d9578063b3446f85146101f9578063c2e522061461020c578063e2eb41ff14610214578063f48f0d8d14610239578063f825f1431461025957600080fd5b8063117a5b90146100b95780632e0be39a1461015a578063474d0b5a146101715780636d763a6e146101845780637fd6f7c41461019957806389a5b229146101ae575b600080fd5b6101136100c7366004611694565b6001602081905260009182526040909120805491810154600282015460048301546005909301546001600160a01b03948516949283169391831692821691600160a01b900460ff169086565b604080516001600160a01b03978816815295871660208701529386169385019390935293166060830152911515608082015260a081019190915260c0015b60405180910390f35b61016360035481565b604051908152602001610151565b61016361017f3660046116ad565b61028d565b61018c610524565b6040516101519190611783565b6101ac6101a73660046117e5565b6106db565b005b6101c16101bc366004611694565b610b58565b6040516001600160a01b039091168152602001610151565b6101ec6101e7366004611694565b610b82565b604051610151919061181b565b6101ac6102073660046118c2565b610c57565b600454610163565b6102276102223660046116ad565b610e8f565b60405161015196959493929190611973565b61024c610247366004611694565b610f5a565b60405161015191906119be565b6101c16102673660046118c2565b80516020818301810180516002825292820191909301209152546001600160a01b031681565b3360009081526020819052604081206005015460ff166102ec5760405162461bcd60e51b8152602060048201526015602482015274141b185e595c881b9bdd081c9959da5cdd195c9959605a1b60448201526064015b60405180910390fd5b6001600160a01b03821660009081526020819052604090206005015460ff166103575760405162461bcd60e51b815260206004820152601760248201527f4f70706f6e656e74206e6f74207265676973746572656400000000000000000060448201526064016102e3565b6001600160a01b03821633036103af5760405162461bcd60e51b815260206004820152601c60248201527f43616e6e6f7420706c617920616761696e737420796f757273656c660000000060448201526064016102e3565b600380549060006103bf836119e7565b90915550506040805160e08082018352338083526001600160a01b03868116602080860191825285870193845286516101208101885260008082528183018190528189018190526060828101829052608080840183905260a080850184905260c08086018590529985018490526101008501849052918a01938452890182905288018190526003805497890188905296815260019283905297909720865181549085166001600160a01b03199182161782559251918101805492851692841692909217909155925160028401805491909316911617905592519192916104a9918301906009611548565b50608082015160048201805460a08501511515600160a01b026001600160a81b03199091166001600160a01b039384161717905560c090920151600590910155600354604051918416913391907f8946648bc1dbc670d3f07e2c4de91731227b6d4ccc53b8ab1e951e84d960577e90600090a4505060035490565b60045460609060008167ffffffffffffffff811115610545576105456118ac565b60405190808252806020026020018201604052801561057e57816020015b61056b6115db565b8152602001906001900390816105635790505b50905060005b828110156106d457600080600483815481106105a2576105a2611a00565b60009182526020808320909101546001600160a01b039081168452838201949094526040928301909120825160c0810190935280549093168252600183018054929392918401916105f290611a16565b80601f016020809104026020016040519081016040528092919081815260200182805461061e90611a16565b801561066b5780601f106106405761010080835404028352916020019161066b565b820191906000526020600020905b81548152906001019060200180831161064e57829003601f168201915b505050918352505060028201546020820152600382015460408201526004820154606082015260059091015460ff16151560809091015282518390839081106106b6576106b6611a00565b602002602001018190525080806106cc906119e7565b915050610584565b5092915050565b60008281526001602052604090206004810154600160a01b900460ff161561073d5760405162461bcd60e51b815260206004820152601560248201527411d85b5948185b1c9958591e48199a5b9a5cda1959605a1b60448201526064016102e3565b60028101546001600160a01b031633146107895760405162461bcd60e51b815260206004820152600d60248201526c2737ba103cb7bab9103a3ab93760991b60448201526064016102e3565b60098260ff16106107cf5760405162461bcd60e51b815260206004820152601060248201526f24b73b30b634b2103837b9b4ba34b7b760811b60448201526064016102e3565b806003018260ff16600981106107e7576107e7611a00565b602081049091015460ff601f9092166101000a900416156108435760405162461bcd60e51b81526020600482015260166024820152752837b9b4ba34b7b71030b63932b0b23c903a30b5b2b760511b60448201526064016102e3565b80546000906001600160a01b0316331461085e576002610861565b60015b905080826003018460ff166009811061087c5761087c611a00565b602091828204019190066101000a81548160ff021916908360ff160217905550336001600160a01b0316847f2e609ae07cc76b1b2b76d7ada4250d5191a8eb5eb7e19181c23c5da8e9643ad1856040516108df919060ff91909116815260200190565b60405180910390a360006108f2856110c5565b90506001600160a01b03811615610a44576004830180546001600160a81b0319166001600160a01b038316908117600160a01b179091556000908152602081905260408120600301805491610946836119e7565b90915550506001600160a01b0381166000908152602081905260408120600201805491610972836119e7565b909155505082546000906001600160a01b0383811691161461099e5783546001600160a01b03166109ad565b60018401546001600160a01b03165b6001600160a01b03811660009081526020819052604081206004018054929350906109d7836119e7565b90915550506001600160a01b0381166000908152602081905260408120600201805491610a03836119e7565b90915550506040516001600160a01b0383169087907fb7f35e624e036288272fbf3342c09219261ff29fdddd826989b289134e9ae53590600090a350610b51565b610a4d85611497565b15610af65760048301805460ff60a01b1916600160a01b17905582546001600160a01b03166000908152602081905260408120600201805491610a8f836119e7565b909155505060018301546001600160a01b03166000908152602081905260408120600201805491610abf836119e7565b909155505060405160009086907fb7f35e624e036288272fbf3342c09219261ff29fdddd826989b289134e9ae535908390a3610b51565b825460028401546001600160a01b03908116911614610b1f5782546001600160a01b0316610b2e565b60018301546001600160a01b03165b6002840180546001600160a01b0319166001600160a01b03929092169190911790555b5050505050565b60048181548110610b6857600080fd5b6000918252602090912001546001600160a01b0316905081565b610b8a61161c565b6000828152600160208181526040808420815160e08101835281546001600160a01b03908116825294820154851693810193909352600281015490931682820152805161012081019182905291936060850192916003850191600991908390855b825461010083900a900460ff16815260206001928301818104948501949093039092029101808411610beb5750505092845250505060048201546001600160a01b0381166020830152600160a01b900460ff161515604082015260059091015460609091015292915050565b3360009081526020819052604090206005015460ff1615610cba5760405162461bcd60e51b815260206004820152601960248201527f506c6179657220616c726561647920726567697374657265640000000000000060448201526064016102e3565b60006001600160a01b0316600282604051610cd59190611a50565b908152604051908190036020019020546001600160a01b031614610d2c5760405162461bcd60e51b815260206004820152600e60248201526d2ab9b2b93730b6b2903a30b5b2b760911b60448201526064016102e3565b6040805160c08101825233808252602080830185815260008486018190526060850181905260808501819052600160a0860181905293815291829052939020825181546001600160a01b0319166001600160a01b03909116178155925191929190820190610d9a9082611abb565b5060408201518160020155606082015181600301556080820151816004015560a08201518160050160006101000a81548160ff02191690831515021790555090505033600282604051610ded9190611a50565b90815260405190819003602001812080546001600160a01b03939093166001600160a01b0319938416179055600480546001810182556000919091527f8a35acfbc15ff81a39ae7d344fd709f28e8600b4aa8c65c6b64bfe7fe36bd19b018054909216339081179092557fe04d23b73ae3d3b27074da9719b5a4cd521395aaf86bfe7e374933ecb567731a90610e84908490611b7b565b60405180910390a250565b600060208190529081526040902080546001820180546001600160a01b039092169291610ebb90611a16565b80601f0160208091040260200160405190810160405280929190818152602001828054610ee790611a16565b8015610f345780601f10610f0957610100808354040283529160200191610f34565b820191906000526020600020905b815481529060010190602001808311610f1757829003601f168201915b505050506002830154600384015460048501546005909501549394919390925060ff1686565b610f626115db565b6004548210610fa95760405162461bcd60e51b8152602060048201526013602482015272496e646578206f7574206f6620626f756e647360681b60448201526064016102e3565b60008060048481548110610fbf57610fbf611a00565b60009182526020808320909101546001600160a01b039081168452838201949094526040928301909120825160c08101909352805490931682526001830180549293929184019161100f90611a16565b80601f016020809104026020016040519081016040528092919081815260200182805461103b90611a16565b80156110885780601f1061105d57610100808354040283529160200191611088565b820191906000526020600020905b81548152906001019060200180831161106b57829003601f168201915b505050918352505060028201546020820152600382015460408201526004820154606082015260059091015460ff16151560809091015292915050565b600081815260016020526040808220815161012081019283905283929091600301906009908285855b825461010083900a900460ff168152602060019283018181049485019490930390920291018084116110ee5790505050505050905060005b60038160ff1610156112b1578161113e826003611b8e565b60ff166009811061115157611151611a00565b602002015160ff16158015906111bd57508161116e826003611b8e565b611179906001611baa565b60ff166009811061118c5761118c611a00565b602002015160ff16826111a0836003611b8e565b60ff16600981106111b3576111b3611a00565b602002015160ff16145b801561122a5750816111d0826003611b8e565b6111db906002611baa565b60ff16600981106111ee576111ee611a00565b602002015160ff1682611202836003611b8e565b61120d906001611baa565b60ff166009811061122057611220611a00565b602002015160ff16145b1561129f578161123b826003611b8e565b60ff166009811061124e5761124e611a00565b602002015160ff1660011461127e57600084815260016020819052604090912001546001600160a01b0316611297565b6000848152600160205260409020546001600160a01b03165b949350505050565b806112a981611bc9565b915050611126565b5060005b60038160ff1610156113b057818160ff16600981106112d6576112d6611a00565b602002015160ff161580159061132d5750816112f3826003611baa565b60ff166009811061130657611306611a00565b602002015160ff16828260ff166009811061132357611323611a00565b602002015160ff16145b8015611384575081611340826006611baa565b60ff166009811061135357611353611a00565b602002015160ff1682611367836003611baa565b60ff166009811061137a5761137a611a00565b602002015160ff16145b1561139e57818160ff166009811061124e5761124e611a00565b806113a881611bc9565b9150506112b5565b50805160ff16158015906113cf57506080810151815160ff9081169116145b80156113ea5750610100810151608082015160ff9081169116145b15611443578060005b602002015160ff1660011461142357600083815260016020819052604090912001546001600160a01b031661143c565b6000838152600160205260409020546001600160a01b03165b9392505050565b604081015160ff161580159061146757506080810151604082015160ff9081169116145b8015611481575060c0810151608082015160ff9081169116145b1561148e578060026113f3565b50600092915050565b600081815260016020526040808220815161012081019283905283929091600301906009908285855b825461010083900a900460ff168152602060019283018181049485019490930390920291018084116114c05790505050505050905060005b600981101561153e5781816009811061151357611513611a00565b602002015160ff1660000361152c575060009392505050565b80611536816119e7565b9150506114f8565b5060019392505050565b6001830191839082156115cb5791602002820160005b8382111561159c57835183826101000a81548160ff021916908360ff160217905550926020019260010160208160000104928301926001030261155e565b80156115c95782816101000a81549060ff021916905560010160208160000104928301926001030261159c565b505b506115d7929150611660565b5090565b6040518060c0016040528060006001600160a01b03168152602001606081526020016000815260200160008152602001600081526020016000151581525090565b6040805160e0810182526000808252602082018190529181019190915260608101611645611675565b81526000602082018190526040820181905260609091015290565b5b808211156115d75760008155600101611661565b6040518061012001604052806009906020820280368337509192915050565b6000602082840312156116a657600080fd5b5035919050565b6000602082840312156116bf57600080fd5b81356001600160a01b038116811461143c57600080fd5b60005b838110156116f15781810151838201526020016116d9565b50506000910152565b600081518084526117128160208601602086016116d6565b601f01601f19169290920160200192915050565b60018060a01b0381511682526000602082015160c0602085015261174d60c08501826116fa565b905060408301516040850152606083015160608501526080830151608085015260a0830151151560a08501528091505092915050565b6000602080830181845280855180835260408601915060408160051b870101925083870160005b828110156117d857603f198886030184526117c6858351611726565b945092850192908501906001016117aa565b5092979650505050505050565b600080604083850312156117f857600080fd5b82359150602083013560ff8116811461181057600080fd5b809150509250929050565b60006101e08201905060018060a01b03808451168352602081818601511681850152816040860151166040850152606085015191506060840160005b600981101561187757835160ff1682529282019290820190600101611857565b5050505060808301516001600160a01b031661018083015260a083015115156101a083015260c0909201516101c09091015290565b634e487b7160e01b600052604160045260246000fd5b6000602082840312156118d457600080fd5b813567ffffffffffffffff808211156118ec57600080fd5b818401915084601f83011261190057600080fd5b813581811115611912576119126118ac565b604051601f8201601f19908116603f0116810190838211818310171561193a5761193a6118ac565b8160405282815287602084870101111561195357600080fd5b826020860160208301376000928101602001929092525095945050505050565b6001600160a01b038716815260c060208201819052600090611997908301886116fa565b905085604083015284606083015283608083015282151560a0830152979650505050505050565b60208152600061143c6020830184611726565b634e487b7160e01b600052601160045260246000fd5b6000600182016119f9576119f96119d1565b5060010190565b634e487b7160e01b600052603260045260246000fd5b600181811c90821680611a2a57607f821691505b602082108103611a4a57634e487b7160e01b600052602260045260246000fd5b50919050565b60008251611a628184602087016116d6565b9190910192915050565b601f821115611ab657600081815260208120601f850160051c81016020861015611a935750805b601f850160051c820191505b81811015611ab257828155600101611a9f565b5050505b505050565b815167ffffffffffffffff811115611ad557611ad56118ac565b611ae981611ae38454611a16565b84611a6c565b602080601f831160018114611b1e5760008415611b065750858301515b600019600386901b1c1916600185901b178555611ab2565b600085815260208120601f198616915b82811015611b4d57888601518255948401946001909101908401611b2e565b5085821015611b6b5787850151600019600388901b60f8161c191681555b5050505050600190811b01905550565b60208152600061143c60208301846116fa565b60ff81811683821602908116908181146106d4576106d46119d1565b60ff8181168382160190811115611bc357611bc36119d1565b92915050565b600060ff821660ff8103611bdf57611bdf6119d1565b6001019291505056fea264697066735822122064e543c36a13d26f1c2ad92ef48bfc13edf059a640de31e0c4a2447f987cb13f64736f6c63430008130033",
  "linkReferences": {},
  "deployedLinkReferences": {}
}